:020000040800F2
:10000000F0040020D5000008891900083318000802
:1000100000000000000000000000000000000000E0
:100020000000000000000000000000008F19000820
:1000300000000000000000008D1900089119000860
:10004000E7000008E7000008E7000008E7000008F4
:10005000E7000008E7000008E7000008E7000008E4
:10006000E7000008E7000008E7000008E7000008D4
:10007000E7000008E7000008E7000008E7000008C4
:10008000E7000008E7000008E7000008E7000008B4
:10009000E7000008E7000008E7000008E7000008A4
:1000A000E7000008E7000008E7000008E700000894
:1000B000E7000008E7000008E7000008044885465C
:1000C00000F000F900480047C5280008C046C046B7
:1000D000F00400200448804704480047FEE7FEE79C
:1000E000FEE7FEE7FEE7FEE7131A0008BD00000882
:1000F00030B50B46014600202022012409E00D46C0
:10010000D5409D4205D31D469540491B2546954047
:1001100040191546521E002DF1DC30BD70B500248B
:100120002546002801DA01244042002901DA012590
:100130004942FFF7DDFFAC4200D04042002C00D026
:10014000494270BDF0B51FB40646002082B0054696
:100150004024019100901BE0019922460F46304651
:1001600000F09EF8049A059B801A994110D310461E
:100170001946224600F084F8361A8F41019722462C
:1001800001200021009F00F07BF838184D410090BD
:100190002046641E0028DFDC019B00982946324679
:1001A00007B0F0BDF0B51FB486B0002000900190FC
:1001B00002900698069980B204900798090C0204F0
:1001C0000014114307900027089D099806913E46A8
:1001D0003C4603900398A9B20204000C03900498D3
:1001E0002D0C154348430021224600F049F8C71959
:1001F000714110340E46402CECDB3846029A00F078
:100200003FF8009A019B8018009059410298019193
:10021000103002904028CCDB00980BB0F0BD0346B4
:100220000B439B0703D009E008C9121F08C0042A2A
:10023000FAD203E00B780370401C491C521EF9D21D
:100240007047D2B201E00270401C491EFBD27047D9
:100250000022F6E710B513460A4604461946FFF792
:10026000F0FF204610BD30B504460020034600E0F4
:100270005B1C934203D2E05CCD5C401BF8D030BDE8
:1002800010B5202A04DB0146203A9140002010BD21
:10029000914020239C1A0346E3401943904010BD2F
:1002A00010B5202A04DB0846203AD040002110BDBA
:1002B0000B46D340D0402024A21A9140084319464F
:1002C00010BD0000064C0125064E05E0E36807CC92
:1002D0002B430C3C98471034B442F7D3FFF7F2FE9F
:1002E000642B0008842B000872B600BFFEE70000F4
:1002F000044949690122120402431143014A516130
:10030000704700000020024010B50346064A5269BB
:10031000064C22401046CA00012424042243921CA9
:100320000243014C626110BD0020024007E0FFFF64
:1003300010B50849496901242143064C61610260F6
:1003400000BF00BF00BFBFF36F8F00BF00BF00BF83
:10035000436010BD00200240F0B502460023144661
:100360000D46114E76690127BF043E430E4F7E6154
:1003700000BFEFF31086304672B605E02E682660A7
:100380002D1D241D5E1CF3B2402BF7D300BF064E7B
:10039000366901273F043E40002EF8D100BF80F3AC
:1003A000108800BFF0BD00000020024070B5044678
:1003B00000F016FA064601252D0409E0601C00280D
:1003C00006D000F00DFA801BA04201D3032070BDBF
:1003D0001348006928400028F0D1114800691149EC
:1003E00008400546481C0E490861002D03D00E4800
:1003F00045600120EBE709E0601C002806D000F012
:10040000EFF9801BA04201D30320E0E70448006914
:100410000121890408400028EED100BFD7E7000081
:1004200000200240FAC30000D000002070B504464E
:1004300000F0D6F906462546681C002802D005487B
:1004400000782D1800BF00F0CBF9801BA842FAD32A
:1004500070BD000010000020F8B504460F4600BF34
:1004600023480078012801D10220F8BD012020494D
:10047000087000BF002048607D20C000FFF796FF95
:100480000646002E2CD1042060602068042808D184
:100490006068FFF72DFF7D20C000FFF787FF06464D
:1004A0001EE00020C0433860A5680DE02946606862
:1004B000FFF72AFF7D20C000FFF778FF0646002ED9
:1004C00001D03D6005E06D1CE168A0684018A842BD
:1004D000ECD800BF074840690221884305494861BC
:1004E00000BF00200249087000BF3046BDE7000091
:1004F000D00000200020024010B501247D20C00063
:10050000FFF754FF07484069E10708430549486180
:1005100008464069C00FC007002800D000242046CC
:1005200010BD000000200240F0B51FB4064614467E
:100530001D4600BF18480078012802D1022005B0EE
:10054000F0BD01201449087000BF002048607D20E4
:10055000C000FFF72BFF0746002F15D1012E05D154
:1005600022462B460198FFF7E3FE03E0214601985F
:10057000FFF7F2FE7D20C000FFF718FF074607488F
:100580004069B0430549486100BF00200249087036
:1005900000BF3846D3E70000D00000200020024012
:1005A000002009494969C90FC90700290BD007492B
:1005B000054A91600649916011464969C90FC9070A
:1005C000002900D001207047002002402301674528
:1005D000AB89EFCD70B503460A460021D7E001266E
:1005E0008E4014683440002C73D01579AD07AD0FE0
:1005F000012D04D01579AD07AD0F022D18D19868E3
:100600004E000325B5400646AE4330464E00D56841
:10061000B54028439860586801258D400646AE4392
:1006200030461026556835402D098D4028435860C6
:100630001579AD07AD0F032D0BD0D8684E000325FB
:10064000B5400646AE4330464E009568B540284357
:10065000D8601579AD07AD0F022D15D1CD08AE00CC
:100660001D462035A8594D07EE0E0F25B54006460C
:10067000AE4330464E07F60E1569B5402843CD0807
:10068000AD001E462036705118684E000325B54057
:100690000646AE4330461579AD07AD0F4E00B54066
:1006A000284318600326360455683540002D6DD068
:1006B0003A4D8E08B600A8598D07EE0E0F25B540AD
:1006C0000646AE43304605252D07AB4202D1002534
:1006D00010E05BE0324DAB4201D101250AE0314D23
:1006E000AB4201D1022505E02F4DAB4201D10325DC
:1006F00000E005258E07F60EB5402843274D8E08ED
:10070000B600A851254D603D28680546A5432846FA
:100710000126360555683540002D02D00546254393
:1007200028461E4D603D286068680546A54328465A
:100730000126760555683540002D02D00546254333
:100740002846164D603D6860144D203568680546A2
:10075000A54328460126760455683540002D02D071
:100760000546254328460D4D203568602868054616
:10077000A54328460126360455683540002D02D091
:10078000054625432846054D20352860491C156837
:10079000CD40002D00D022E770BD0000601802405F
:1007A0000004005000080050000C0050024613697D
:1007B0000B40002B01D0012000E00020704710B555
:1007C000426913460B401B040C4694432343836148
:1007D00010BD002A01D0816100E0816270470000F5
:1007E00001480068704700000800002003480068C6
:1007F0000349097840180149086070470800002043
:100800001000002010B5002408480068FF210131C5
:10081000084306490860032000F00AF8002801D0C8
:10082000012401E000F034F8204610BD0020024011
:10083000F8B5044600251348007800281ED011485A
:1008400001787D20C000FFF753FC074639460E486B
:100850000068FFF74DFC064600F040FE00280BD173
:10086000042C07D200222146401E00F033F807482E
:10087000046004E0012502E0012500E0012528468E
:10088000F8BD000010000020140000200C00002023
:1008900008B500BF0E480068012108430C490860F4
:1008A00008460068C007C00F009000BF00BF00BF2F
:1008B00007484038C06B8905084305494039C8637B
:1008C0000846C06B09040840009000BF00BF08BD87
:1008D0004010024070B504460D4616462946204693
:1008E00001F020FC70BD000070B50446114800689E
:1008F00003214902884320430E4908604815844279
:1009000016D10D4909680622514308460B49FFF7E5
:10091000EFFB451C05E0002D01D06D1E01E003201A
:1009200070BD044840690121890208408842F2D024
:100930000020F5E7007000401400002040420F0046
:10094000FEB50446002700200290012149042068DA
:10095000084088427BD100200190B348C06BC90297
:10096000084000280ED100BFAF48C06B0843AE4915
:10097000C8630846C06B09040840009000BF00BF70
:1009800001200190A9480068FF2101310843A749CF
:100990000860FFF725FF064606E0FFF721FF801BF2
:1009A000022801D9032706E0A0480068FF21013191
:1009B00008400028F1D000BF002F4BD19A484030AA
:1009C000C569032109020D40002D1AD0206BA842F1
:1009D00017D095484030C06988430546924840305A
:1009E000C0690121090408438F494031C8610846A4
:1009F000C0690121090488438B494031C861084618
:100A0000C561E807C00F002813D0FFF7E9FE0646CE
:100A100007E0FFF7E5FE801B8549884201D90327DF
:100A200006E081484030C069022108400028F0D02B
:100A300000BF002F0CD17C484030C069032109025F
:100A40008843216B084378494031C86103E00DE0D9
:100A5000029700E002970198012806D17248C06B06
:100A60000121090788437049C86300BF2078C00787
:100A7000C00F002809D06C484030406980088000D1
:100A80006168084368494031486102212068084094
:100A9000022809D16448403040690C218843A1688C
:100AA00008436149403148611021206808401028FE
:100AB0000AD15D4840304069032189028843E168DA
:100AC00008435949403148610121490220680840E2
:100AD00088420AD154484030406903218904884340
:100AE000A1690843504940314861012189022068C9
:100AF000084088420AD14C4840304069032109052A
:100B00008843E16908434849403148612021206811
:100B1000084020280AD14448403040690321090395
:100B200088432169084340494031486101218903D4
:100B300020680840884213D13B484030406980001B
:100B40008008216A08433849403148610906206A13
:100B5000884205D13448C068891308433249C860C7
:100B60000121C90420680840884209D12E4840303C
:100B7000406940218843616A08432B4940314861FC
:100B80000121490520680840884214D12648403098
:100B9000406949008843A16A0843234940314861BC
:100BA00001218905A06A884205D11F48C0688900D3
:100BB00008431D49C8600121890520680840884212
:100BC00013D119484030406989008843E16A0843DD
:100BD00015494031486101210906E06A884204D183
:100BE0001148C06808431049C8600121C902206843
:100BF0000840884215D10C484030406903218903E0
:100C000088436169084308494031486101218903EB
:100C10006069884205D10448C068890008430249D8
:100C2000C8600298FEBD0000001002400070004045
:100C30008813000070B504460D46002C01D1012038
:100C400070BD6B4800684007400FA84218D2684842
:100C50000068C008C000284365490860FFF7C0FD70
:100C6000064607E0FFF7BCFD801B6249884201D9B8
:100C70000320E5E75E4800684007400FA842F1D135
:100C8000022120680840022815D10421206808406C
:100C9000042807D158488068072109038843401871
:100CA00055498860544880680F2109028843A1682B
:100CB0000843514988602078C007C00F002854D0ED
:100CC0006068012808D14C480068012149040840A7
:100CD00000282ED10120B3E76068022808D14648D9
:100CE0000068012149060840002822D10120A7E719
:100CF0006068002808D14048006801218902084046
:100D0000002816D101209BE76068032808D13A48E3
:100D10004030006A0221084000280AD101208FE7F4
:100D200035484030C06902210840002801D1012027
:100D300086E731488068C008C000616808432E49D2
:100D40008860FFF74DFD064607E0FFF749FD801B71
:100D50002849884201D9032072E727488068382152
:100D600008406168C9008842EFD121480068400707
:100D7000400FA84218D91E480068C008C000284388
:100D80001B490860FFF72CFD064607E0FFF728FD2A
:100D9000801B1849884201D9032051E71448006894
:100DA0004007400FA842F1D10421206808400428E0
:100DB00008D111488068072109038843E168084386
:100DC0000D49886000F03AF80B4989680F22120239
:100DD0001140090A8900094A515CC906C90EC84078
:100DE0000749086007480068FFF722FD28E7000070
:100DF000002002408813000000100240042B00086D
:100E0000140000200C00002001480068704700001A
:100E10001400002000B5FFF7F7FF06498968072294
:100E200012031140090B8900034A515CC906C90E1F
:100E3000C84000BD00100240442B0008FEB53548F4
:100E400080683821084000280DD132480068090226
:100E50000840C10A0120884000902F480099FFF700
:100E600047F9044654E02B48806838210840082898
:100E700001D12A4C4CE027488068382108401028CE
:100E800034D12448C0688607B60F2248C068702154
:100E900008400009401C0190022E0FD0032E0CD1F7
:100EA0001E480199FFF724F91A49C9687F221202E6
:100EB0001140090A484305460DE000BF1648019954
:100EC000FFF716F91349C9687F2212021140090A77
:100ED0004843054600BF00BF0E48C068400F471C8E
:100EE00039462846FFF704F9044611E009488068AE
:100EF00038210840202801D1840209E00548806893
:100F000038210840182802D17D24240200E0002462
:100F10002046FEBD001002400024F40000127A00BA
:100F2000FEB50446002C01D10120FEBD2078C0078B
:100F3000C00F00286FD0F748876838210F40C0687D
:100F40008607B60F102F01D1032E01D0082F0BD129
:100F5000F048006801214904084000285BD060681F
:100F6000002858D10120E0E700BF01210904606892
:100F7000884205D1E74800680843E649086021E057
:100F800005210904606888420ED1E2480068012109
:100F900089040843DF490860084600680121090404
:100FA0000843DC4908600DE0DA48006801210904C3
:100FB0008843D849086008460068012189048843AD
:100FC000D449086000BF6068002812D0FFF708FC11
:100FD000054606E0FFF704FC401B642801D9032006
:100FE000A3E7CC4800680121490408400028F1D05B
:100FF00011E0FFF7F5FB054606E0FFF7F1FB401BAC
:10100000642801D9032090E7C248006801214904FF
:1010100008400028F1D1022120680840022873D13D
:10102000BC488068382108400746BA48C06886072F
:10103000B60F102F01D1022E01D0002F36D1B548A6
:101040000068012189020840002804D0E0680028D7
:1010500001D1012069E7AF4840687F210902884338
:10106000616909020843AB494860002F16D1084660
:1010700000680721C902884321690843A54908601F
:10108000084600680722D2021040C20A01209040A0
:101090000146A148FFF72CF8A0490860A048006865
:1010A000FFF7C6FB002849D001203EE7E068002892
:1010B0002BD0984800680721C9028843216908435A
:1010C00094490860084600688915084391490860FA
:1010D000FFF786FB054606E0FFF782FB401B022870
:1010E00001D9032021E78B480068012189020840CB
:1010F0000028F1D0874840687F2109028843616950
:10110000090208438349486018E082480068FF21CB
:10111000013188437F490860FFF762FB054606E01E
:10112000FFF75EFB401B022801D90320FDE679484A
:1011300000680121890208400028F1D108212068B7
:101140000840082849D17348806838210840182889
:101150000BD170484030006A0221084000283CD082
:10116000A069002839D10120DFE6A06900281AD043
:1011700068484030006A01210843664940310862EE
:10118000FFF72EFB054606E0FFF72AFB401B02286F
:1011900001D90320C9E65F484030006A02210840B7
:1011A0000028F1D019E05B484030006A4008400058
:1011B000584940310862FFF713FB054606E0FFF788
:1011C0000FFB401B022801D90320AEE651484030F6
:1011D000006A022108400028F1D10421206808405B
:1011E00004287CD1002001904A48806838210840BA
:1011F00020280BD147484030C06902210840002810
:101200006ED0A06800286BD101208EE64148C06BEB
:10121000010F01208843002810D000BF3D48C06B5B
:101220000121090708433B49C8630846C06B09040C
:101230000840009000BF00BF0120019039480068BD
:10124000FF2101310840002816D1364800680843C4
:1012500034490860FFF7C4FA054606E0FFF7C0FA14
:10126000401B022801D903205FE62E480068FF21B9
:10127000013108400028F1D000BFA068012808D142
:1012800024484030C0690121084322494031C861E7
:1012900020E0A06805280FD11E484030C069042115
:1012A00008431C494031C8610846C0690121084310
:1012B00018494031C8610DE016484030C069410806
:1012C000490014484030C161C06904218843114974
:1012D0004031C86100BFA068002816D001E040E09E
:1012E0003EE0FFF77DFA054607E0FFF779FA401B7D
:1012F0000D49884201D9032017E606484030C069ED
:10130000022108400028F0D01EE0FFF769FA0546E8
:1013100014E00000001002400024F400140000203B
:101320000C0000200070004088130000FFF758FAFE
:10133000401B6649884201D90320F6E56448C0692C
:10134000022108400028F1D10198012808D1604805
:101350004038C06B0121090788435D494039C863A3
:1013600000BFE06900285CD05948403880683821C7
:10137000084010287CD0E069022853D154484038F6
:101380000068012109068843514940390860FFF788
:1013900027FA054606E0FFF723FA401B022801D989
:1013A0000320C2E54A484038006801214906084048
:1013B0000028F0D1616A206A0843A16A0902084343
:1013C000E16A0843216B0843616B08434049403997
:1013D000C968404A114008433D494039C860084641
:1013E0000068012109060843394940390860084668
:1013F000C0680904084336494039C860FFF7F0F96E
:10140000054606E0FFF7ECF9401B022801D903204E
:101410008BE52F4840380068012149060840002824
:10142000F0D050E02A48403800680121090688437E
:10143000274940390860FFF7D3F9054606E0FFF772
:10144000CFF9401B022801D903206EE5204840381F
:1014500000680121490608400028F0D11C484038A6
:10146000C0681D4908401A494039C8602BE0FFE7B1
:10147000E069012800D158E515484038C668B10731
:10148000890F206A81421CD170203040616A8842F5
:1014900017D17F2000023040A16A0902884210D192
:1014A0001F2040043040E16A88420AD107204006EC
:1014B0003040216B884204D1710F4907606B814233
:1014C00001D0012031E500202FE500008813000045
:1014D000401002408C80C111FCFFFEEE70B5044646
:1014E0002546681E0949884201D901200CE0681E82
:1014F000074948610321081F00F014FE0020044939
:10150000886107200861002070BD0000FFFFFF0018
:1015100000E000E0014600BF8420405C012801D1CA
:101520000220704701238420435400BF24238820D5
:1015300043500868026808680068400840000B686B
:10154000186001235B071046984302460020486656
:101550000868026020238820435000BF00238420B5
:10156000435400BF0020DCE770B504460D4600BFC1
:101570008420005D012801D1022070BD012184205A
:10158000015500BF24218820015120680668206889
:1015900000684008400021680860206880680721D2
:1015A00049068843284321688860204600F032FAC3
:1015B0002068066020218820015100BF002184207E
:1015C000015500BF0020D8E770B504460D4600BFA6
:1015D0008420005D012801D1022070BD01218420FA
:1015E000015500BF24218820015120680668206829
:1015F0000068400840002168086020688068C000DA
:10160000C008284321688860204600F003FA20685B
:10161000066020218820015100BF0021842001554F
:1016200000BF0020D9E710B50446002C01D10120ED
:1016300010BDA069002800D000E000BF882000593C
:10164000002805D1002184200155204600F02CF807
:10165000242188200151206800684008400021684A
:101660000860A06A002802D0204600F007FA204651
:1016700000F040FB012800D1DAE72068406809212A
:10168000C902884321684860206880682A2188430D
:10169000216888602068006801210843216808608B
:1016A000204600F063FAC3E710B594B00446142155
:1016B0000FA8FEF7CDFD342102A8FEF7C9FD1E4993
:1016C0002068884236D1022002900020049002A8AF
:1016D000FFF736F9002801D0FEF706FE00BF1748D5
:1016E000C06B0121490408431449C8630846C06B14
:1016F000012149040840019000BF00BF00BF0F480E
:10170000406B012108430D4948630846406BC00700
:10171000C00F019000BF00BF0C200F90022010905E
:10172000002011901290012013900FA905200007AE
:10173000FEF750FF14B010BD0044004000100240FE
:10174000FFB583B004460D4617468820005920286F
:101750006DD1002D01D0002F02D1012007B0F0BDC6
:1017600001210903A068884208D12069002805D119
:10177000E807C00F002801D00120EFE700219020EA
:101780000151212188200151FFF72AF801905420AE
:1017900007535620075301210903A068884205D149
:1017A0002069002802D10026029502E02E46002082
:1017B000029024E006980090002280212046019BA0
:1017C00000F046FC002804D020218820015103208D
:1017D000C4E7002E09D102980088C005C00D216819
:1017E00088620298801C029003E030782168886249
:1017F000761C5620005B401E81B2562001535620B5
:10180000005B0028D6D10698009000224021204697
:10181000019B00F01DFC002804D0202188200151EC
:1018200003209BE7202188200151002096E7022019
:1018300094E700BFFEE7000000B587B0142102A8BE
:10184000FEF706FD00BF0C48406B042108430A491F
:1018500048630846406B04210840019000BF00BF68
:10186000C802029000200390049002A90348FEF7EA
:10187000B1FE07B000BD000000100240000800509B
:1018800010B5012149030D48FEF790FF002813D140
:101890001420FEF7CBFD012149030848FEF786FF1F
:1018A000002809D100BF012149030448FEF77EFF4B
:1018B0000028F8D0012010BD0020FCE700080050EF
:1018C00000B587B0142102A8FEF7C2FC00BF104883
:1018D000406B012108430E4948630846406BC0072E
:1018E000C00F019000BF00BF00222021052000078B
:1018F000FEF76FFF2020029001200390002004904B
:10190000059002A905200007FEF764FE07B000BDA0
:101910000010024010B51A481A490860E120400240
:101920004860002117488160C16001610C2141615C
:1019300000218161C1610162416200201149886218
:101940000846FFF770FE002801D0FEF7CDFC00210D
:101950000C48FFF739FE002801D0FEF7C5FC002136
:101960000848FFF701FE002801D0FEF7BDFC05483E
:10197000FFF7D0FD002801D0FEF7B6FC10BD000037
:10198000004400401C00002000BFFEE77047704785
:1019900010B5FEF72BFF10BD00B593B0382105A898
:1019A000FEF756FC00200190029003900490012065
:1019B0004002FEF799FF02200590C0010890002028
:1019C000099040200A9002200C9002210D910021E4
:1019D0000E9108210F910104109101061191010748
:1019E000129105A8FFF79CFA002801D0FEF77CFCB5
:1019F0000720019002200290002003900490022111
:101A000001A8FFF717F9002801D0FEF76DFC13B00D
:101A100000BD7047F8B50446606E002805D101216D
:101A20006A2001536820015322E00827082200920F
:101A300020688068072149060840450E20688068B4
:101A4000460F0C4A915D0C4A935D009A5343184629
:101A5000FEF764FB81B26A200153064A515D064AD3
:101A6000525D7A431046FEF759FB81B2682001535C
:101A7000F8BD0000F12A0008E92A00080822816A5E
:101A80001140082907D10168496812039143826B0C
:101A9000114302685160018DC907C90F002908D0A0
:101AA00001684968012252049143C26A11430268E5
:101AB00051600222816A1140022907D101684968F8
:101AC000D2039143026B1143026851600422816A80
:101AD0001140042907D10168496812049143426BFF
:101AE0001143026851601022816A1140102907D108
:101AF0000168896812029143C26B114302689160C8
:101B00002022816A1140202907D1016889681202C8
:101B10009143026C1143026891604022816A114036
:101B2000402915D10168496892039143426C1143E1
:101B30000268516001221205416C914208D101688E
:101B40004968032252059143826C11430268516037
:101B50008022816A1140802907D1016849681203F7
:101B60009143C26C1143026851607047F8B5044656
:101B7000002190200151FEF733FE054620680068E1
:101B800008210840082824D138482B46002289041F
:101B90000090204600F05CFA00281AD000BF00F048
:101BA000FDFA0646012000F00BFB2068006880214A
:101BB000884321680860304600F002FB00BF202106
:101BC0008820015100BF00218420015500BF03205F
:101BD000F8BD2068006804210840042836D1234855
:101BE0002B46002209050090204600F031FA00281B
:101BF0002CD000BF00F0D2FA0646012000F0E0FA37
:101C000020680068FF212131884321680860304640
:101C100000F0D6FA00BF00BF00F0C0FA064601206F
:101C200000F0CEFA20688068400840002168886093
:101C3000304600F0C5FA00BF20218C20015100BFC2
:101C400000218420015500BF0320C1E72021882006
:101C500001518C2001510020E066206700BF002167
:101C60008420015500BF0020B2E70000FFFFFF0104
:101C700070B5044600BF00F091FA0546012000F05F
:101C80009FFA20680068FF2121318843216808609D
:101C9000284600F095FA00BF00BF00F07FFA054625
:101CA000012000F08DFA2068806811490840216801
:101CB0008860284600F084FA00BFE06E012810D149
:101CC00000BF00F06BFA0546012000F079FA2068A9
:101CD00000681021884321680860284600F070FAE7
:101CE00000BF20218C2001510020E066606770BD9C
:101CF000FEFFFFEFF0B58DB0044600200590C84907
:101D00002068884200D100E000BF2169A068084334
:101D100061690843E1690843079020680068C14988
:101D2000084007990843216808602068406803213B
:101D300009038843E168084321684860A069079067
:101D4000B7492068884203D0206A07990843079062
:101D500020688068B4490840079908432168886072
:101D60002068C06A00090001616A08432168C862EE
:101D700000BFAE492068884217D1AD48406980074E
:101D8000800F002806D0012808D0022804D003289C
:101D900008D105E0002507E0022505E0042503E061
:101DA000082501E0102500BF47E0A24920688842CD
:101DB00017D19F4840690C210840002806D004280C
:101DC00008D0082804D00C2808D105E0002507E039
:101DD000022505E0042503E0082501E0102500BFE9
:101DE0002BE095492068884201D1002525E09349E0
:101DF0002068884201D100251FE089492068884277
:101E00001AD18B484069032189020840002808D074
:101E100001218902401A08D0401A04D0401A08D182
:101E200005E0002507E0022505E0042503E008257C
:101E300001E0102500BF00E0102500BF78492068B0
:101E4000884263D1002D06D0022D08D0042D08D081
:101E5000082D0DD109E0FEF7DDFF06460CE0784EB7
:101E60000AE0FEF7EBFF064606E00126F60303E074
:101E700000260120059000BF00BF002E14D0606A2C
:101E80004000704A115A3046FEF732F904906068FB
:101E9000410041180498814204D860680103049805
:101EA000814202D201200590AEE0606A400065499F
:101EB000085A02460023019030461946FEF742F9BF
:101EC000FF2301330022099308920A910B901A46CE
:101ED000089BFEF767F96268520800238018594191
:101EE000039102906068024601900298FEF72AF979
:101EF0000746032109028F4205D35348874202D87F
:101F00002068C76080E0012005907DE00121C903C1
:101F1000E069884241D1002D06D0022D08D0042D61
:101F200008D0082D0DD109E0FEF774FF06460CE03D
:101F3000434E0AE0FEF782FF064606E00126F6035E
:101F400003E000260120059000BF00BF002E5BD0FB
:101F5000606A40003B4A115A3046FEF7C9F840001B
:101F600061684908401803906168FEF7C1F80746A8
:101F7000102F0FD3354887420CD834480F383840DB
:101F800006903807400F0699084306900698216886
:101F9000C86039E00120059036E0002D06D0022D02
:101FA00008D0042D08D0082D0DD109E0FEF732FF2E
:101FB00006460CE0224E0AE0FEF740FF064606E029
:101FC0000126F60303E000260120059000BF00BFB4
:101FD000002E19D0606A40001A4A115A3046FEF7A6
:101FE00087F861684908401803906168FEF780F837
:101FF0000746102F06D31548874203D8B8B2216888
:10200000C86001E00120059001216A200153682089
:10201000015300206067A06705980DB0F0BD000077
:1020200000800040F369FFCFFFF4FF11003801404A
:10203000401002400044004000480040004C004076
:102040000024F400CA2A0008FFFF0F00FFFF000071
:10205000FFB581B004460D4617460A9E46E0701C47
:10206000002843D0FEF7BCFB0499401AB04201D8C7
:10207000002E02D1032005B0F0BD206800680421C5
:102080000840002832D0802D30D0402D2ED020683E
:10209000C06908210840C00800280FD00820216826
:1020A00008622046FFF7E4FD08219020015100BF9F
:1020B00000218420015500BF0120DCE72068C069B1
:1020C0000121C9020840C00A00280FD00846216833
:1020D00008622046FFF7CCFD20219020015100BF6F
:1020E00000218420015500BF0320C4E72068C06997
:1020F0002840A84201D1012000E00020B842AED023
:102100000020B8E70FB410B503A9044B044A0298A5
:1021100000F05AF810BC08BC04B018471927000892
:102120001800002010B5002819DB1A4A03231B02EF
:10213000D21883089B00D2588307DC0EFF23A340EC
:102140009A438B071B0E8407E40EA3401A43114BDE
:10215000032424021B198408A4001A5118E00E4A13
:1021600003071B0F083B9B089B00D2588307DC0E1C
:10217000FF23A3409A438B071B0E8407E40EA34062
:102180001A43054B0407240F083CA408A4001A5165
:1021900010BD000000E100E01CED00E0EFF3108056
:1021A000704702E008C8121F08C1002AFAD1704720
:1021B0007047002001E001C1121F002AFBD17047C7
:1021C00080F3108870470000FFB591B00F460546B8
:1021D000002606E025280AD0149A139990476D1C12
:1021E000761C28780028F5D1304615B0F0BD0024C3
:1021F00000940121F34A029400E004436D1C2B7803
:102200000846203B98401042F7D128782A280ED063
:102210000222287801463039092915D800990A2365
:1022200059433039401814436D1C0090F1E701CF39
:102230000090002805DA0120400304430098404242
:102240000090022004436D1C28782E2815D104200C
:10225000044368786D1C2A280AD101CF6D1C0290B6
:102260000BE002990A225143303940186D1C02904C
:102270002878014630390929F3D928786C2810D0FC
:1022800006DC4C281AD068280ED06A2817D104E042
:10229000742813D07A2812D110E00120400504439D
:1022A0000CE00121090501E0032109050C436978CF
:1022B000814203D10120000524186D1C6D1C287873
:1022C0006E281ED00CDC632831D004DC00288BD0B3
:1022D000582811D1B2E064287BD069280CD178E06D
:1022E00073282DD004DC6F2870D0702804D1A7E0AB
:1022F00075286CD078286BD0149A13999047761C67
:1023000062E06002400F022807D003280AD00428A8
:1023100038680AD006603F1D56E03868F11706603D
:102320004160F8E738680680F5E70670F3E738782B
:10233000694608740020487404A80390012003E053
:10234000386803900020C0433F1D61070FD500216E
:1023500001E00199491C029A0191914213DA8142EC
:10236000F7DB019A0399895C0029F2D10BE0002187
:1023700001E00199491C01918142FADB019A03991C
:10238000895C0029F5D101990098139A401A0090B0
:102390002146149B00F03CF901998019461807E08A
:1023A000039803990078491C0391149A1399904754
:1023B0000198401E0190401CF2D12146149B139AB3
:1023C000009800F015F986196D1C0AE741E033E02A
:1023D00034E00A200021049005916002410F022997
:1023E00005D001CFC2179446032905D007E0FF1D91
:1023F000FF08FF0003CF06E000B2C217944604298D
:1024000002D140B2C1178C4600226146944506DADB
:102410000A460021404291418C462D2102E02105CF
:1024200004D52B216A461176012103E0E10701D092
:102430002021F7E7019155E00A200BE0102009E088
:1024400010200490002104200443082005910290EC
:1024500003E008200021059104906002410F022949
:1024600005D001CF00229446032906D006E0FF1DC7
:10247000FF08FF0003CF8C4603E080B2042900D19F
:10248000C0B20021019121072CD529780391702930
:1024900006D0049A1021059B4A401A4305D00EE04D
:1024A00040216A461176012108E06146014306D0C9
:1024B00030216A4611760399517602210191049ADE
:1024C0000821059B4A401A430CD16146014301D1C2
:1024D000610707D530216A461176012101910299E1
:1024E000491E02912978582904D037A103910FA9D8
:1024F0000F910DE039A1F9E76146059B049AFDF7BC
:1025000021FE039B8C469B5C0F9A521E0F92137008
:1025100061460143F0D10F9807A9081A20300390B3
:10252000600704D5012000048443029801E00120E3
:1025300002900399884201DD401A00E00020411812
:102540000290019809180098401A0090E00306D400
:102550002146149B139A009800F05AF8861900201F
:10256000049008E006A9085C149A1399904704980F
:10257000401C761C049001998842F3DBE0030CD5E3
:102580002146149B139A009800F042F8861904E043
:10259000149A302013999047761C0299481E029095
:1025A0000029F5DC08E00F980F990078491C0F917D
:1025B000149A13999047761C0399481E039000299A
:1025C000F1DCFAE609280100303132333435363790
:1025D000383961626364656600000000303132336F
:1025E000343536373839414243444546000000000F
:1025F000F8B5044600251E461746880404D405E0B5
:1026000039462020B0476D1C641EF9D52846F8BD18
:10261000FFB50446002581B01E46C80301D530270A
:1026200000E02027880404D505E038460399B04728
:102630006D1C641EF9D5284605B0F0BD01460A7828
:102640000B795A400B7A5A404B7A5A40D0B27047B5
:1026500010B586B0044600200290039004900590C7
:102660000190022002908006201AC00A04900120E6
:1026700005900CA00499FFF745FDFDF791FF002898
:1026800002D0012006B010BD01A902A8FDF7E4FEAA
:10269000002803D0FDF730FF0120F3E7FDF72CFF02
:1026A0000020EFE7657261736520706167653A200D
:1026B00025580D0A0000000010B5FDF71DFF10BDE4
:1026C000FEB506460F461546002002906807400FEB
:1026D000002801D00120FEBD00F019F800240FE011
:1026E000381903C80191009031190120019B009A0B
:1026F000FDF71AFF02900298002800D002E008348B
:10270000AC42EDD300BFFFF7D7FF0298E3E710B567
:10271000FDF746FF10BD000013B50C460023DB4358
:10272000012269460248FFF70BF800981CBD000023
:102730001C000020F0B589B0394C2646002528E061
:10274000102205A9204600F045F9FF22102101A81A
:10275000FDF777FD102201A905A8FDF784FD0028EB
:1027600001D1012000E000200090009800280DD148
:1027700005A8FFF763FF08A9C978884206D1264655
:102780000125284805A98EC98EC000E004E0103458
:1027900000BF25488442D3D300BF002D01D01020B4
:1027A00000E00020801921490860002D04D0314646
:1027B0001FA0FFF7A7FC02E02AA0FFF7A3FC1B481D
:1027C00000681949884208D932A0FFF79BFC1448D9
:1027D000FFF73EFF124815490860002D1AD133A0BB
:1027E000FFF790FC64200F490860C8204860012072
:1027F000087248720846FFF721FF0A49C87372B68B
:10280000102208490648FFF75BFF62B60448103003
:1028100006490860034800F08DF809B0F0BD0000DB
:1028200000F80108B00000200000020804000020A9
:10283000696E69742066697273742C666F756E6454
:102840002076616C696420646174612C6C617374BE
:102850005F76616C69645F616464723A25580D0A41
:1028600000000000696E69742066697273742C69D7
:102870007420697320616C6C2066662C6974206911
:102880007320746865206669727374206461746172
:102890000D0A0000696E69742065726173652070AD
:1028A00061676520324B420D0A0000006E6F742094
:1028B000666F756E642076616C6964206461746112
:1028C0000D0A0000FDF79EFFFFF766F8FEF7F8FF20
:1028D000FEF7B2FFFFF71EF8FFF72CFF18E0FEF738
:1028E000CFFF012811D1202105200007FDF767FF48
:1028F000084800F0D1F808480068401C0649086004
:102900000846016805A0FFF7FDFB0A20FDF78EFDD4
:10291000E5E70000B0000020000000204E756D6269
:102920006572206F662073617665733A25750D0AAE
:102930000000000010B504460D480068014610393B
:102940000CA0FFF7DFFB10A02168FFF7DBFB11A055
:102950006168FFF7D7FB217A12A0FFF7D3FB617AFA
:1029600013A0FFF7CFFBE17B15A0FFF7CBFB10BD5A
:102970000400002063757272656E74206164647275
:102980003A2025580D0A0000636F6C6F723A2025BB
:10299000750D0A007365636F6E64733A2025750DBB
:1029A0000A0000006D6F64653A2025750D0A00006D
:1029B0006E756D6265723A2025750D0A0000000083
:1029C000436865636B73756D3A20253032580D0A84
:1029D0000000000070B504460D46164632462146FA
:1029E0002846FDF71CFC70BD1FB504461C48006856
:1029F0001C49884212D91A49096808461038102221
:102A00006946FFF7E7FF102221466846FDF72BFCD9
:102A1000002803D114A0FFF775FB1FBD72B6104844
:102A2000006810301649884208D916A0FFF76AFBE3
:102A30000C48FFF70DFE0B48094908602046FFF7D8
:102A4000FDFDE0731022214605480068FFF738FEBF
:102A50000348006810300249086062B600BFDCE736
:102A60000400002000F80108CAFDBEDDC3BBD3D0BE
:102A7000B1E4BBAFA3ACD6B1BDD3B7B5BBD80000F2
:102A8000000002086572617365207061676520321D
:102A90004B420D0A0000000010B504462068801C5F
:102AA00020606068401C6060207A401C2072607A60
:102AB000401C60722046FFF797FF2046FFF73AFF61
:102AC00010BD081C3044586C800001000200040056
:102AD000060008000A000C001000200040008000E2
:102AE0000001081C3044586C8001010103070100FB
:102AF000000804020408010101000000081C304421
:102B0000586C800000000000000000000000000081
:102B100000000000000000000000000000000000B5
:102B2000000000000100000002000000030000009F
:102B3000040000000600000007000000080000007C
:102B4000090000000000000000000000000000007C
:102B5000000000000100000002000000030000006F
:102B600004000000842B0008000000201C0000006E
:102B7000A2210008A02B00081C000020D4040000A3
:102B8000B22100080100000000F801080000000068
:102B900004000000010000000024F4000000000018
:04000005080000BD32
:00000001FF
